:4000000080673030303030307e3030307e3030307e3030307e3030307e3030307e3030307d07907e7d07d77e7e3030307e3030307d07027e7d07497e7e3030307e30303073
:400040007d049c7e7e3030307d03ff7e7e3030307e3030307e3030307e3030307e3030307d05ab7e7e303030711062fa0062e38770ef50202850402850602862e33841feef
:40008000fb50804e62e3385dd00862d00055fa014f5b010353f955f83a500600711051f960e851f860ea70ef1860d055f80055f900711062e00270ef62e3386271056275e4
:4000c00005627905627d0562d10750004e62d30762d00062d50062d40071c07c039d62d000500257960828531618750900284b5116800475090062e300082860d574a04bb2
:400100001875090008285316187509000828a01c53151875090008283f164716ffb0065dd57460d5187a15bfeb8fc9187509000828531550003f164716ffb0085dd5746008
:40014000d550007a15bfef188faa18711070ef62e000711062e00043e78070ef62e2007c086a8fff50087f303030303030303030303030303030303030303030303030307f
:4001800030303030303030303030303030303030303030303030303030303030303030300e220cc70b3309bc08a207c30703066705e20572050704b40464042503ea270087
:4001c0002564263223002164223237003564363233003164323284908500866087f843004100420175fe7621772074004700456846004b0049014a00602866006315650000
:40020000e602e746d640b000b100b200b333b433b511b611b855b900ba10bb33bc33bd22be22c000c100c220c333c433c500c640c855c900ca30cb33cc33cd00ce006c00fb
:400240006d006e006f00ff242125162647202121162245342135163647302131163245403141164240440145114640482149314a47610069006005620067336833630066cf
:4002800000d100d300d000d200e132e200df6ede02dd00e748ff0da870ef62000b711062000b6201f470ef6203f4620200711062020062030070ef62010062040371106291
:4002c000040b6205f770ef6207f7620608711062060062070070ef62050062080071106208ff62090070ef620b00620aff7110620a00620b0070ef620900620c00711062df
:400300000c00620d0070ef620f00620e007110620e00620f0070ef620d00621000711062100062110070ef621300621200711062120062130070ef6211006214007110621d
:40034000140062150070ef621700621600711062160062170070ef621500621800711062180062190070ef621b00621a007110621a00621b0070ef621900621c007110625d
:400380001c00621d0070ef621f00621e007110621e00621f0070ef621d0070ef7f7c03a47c02987f1070ef500067500157be7c03bf500167500257477c03bf70ef207f3866
:4003c0000210084f56fc00d00456fc01182070ef62e30010082839ffa01f4f48fc01a003711054fd18207509001008284f59fd610018207509008fd738fc703f71c07f7ed6
:4004000043df047f41dffb7f4347017f4147fe7f60455b60497f60465b604a7f5d4a5c5d467f4f5d4a085d46084147fe71105d450862450070ef5d485d4a085d445d4608f7
:400440005200604a5201604671105202604570ef434701182038fd703f71c07f21034f085d7721fc2b00607718703f71c07f21fc4f085d752107480004b00e4174fe2b001c
:40048000607518703f71c07f2700182b00607543740118703f71c07f4177fc7f7a05c0027e3c0600b012085de553035de453021855060155053f7e438620438710085de5be
:4004c000120353035de41a023910b005785503ff5f01035300550401183c0700b00e5506005505004187ef4186df7e7a07a00e5506005505004187ef4186df7e711041e746
:400500003f43e78070ef41dffe7e900d4386204387106241ff4343017f4f2103085d8721fc2b00608718703f71c07f41dffe4187fc4143fe7f62d0004187ef4186df5506fd
:400540000055050053075d42b004624201711041e73f43e74070ef62dcfe43df017f711041e73f43e78070ef41dffe4386204387107f62d00051047f62d000550400580006
:4005800051013c0400bff57f62d00055040051017f62d000580051017f62d00051017f62d00051045504007f60427f0810703f71805dd3085dd00862d000510b60d32e0820
:4005c0008049d708a0092608f02e0800800849d720a00380a85108210ee0018011806780798047809880968094809280995dd821fe39a4a00662d700808c49d801b00f5563
:400600000f022608f02e080262d7108079550f012608f02e08065f0a09510c020a5c520060d8760a62d714805d510d783a0ac00f510c020a5c520060d8760a2e082060d8a1
:4006400062d70480415dd83a0dd02da02b530a53092608f02e0804801a510ea01b783a0ac016510c020a5c5dd854002e0810760a800162d710800f62d700800a2608f02e65
:400680000800550f001860d01860d320187e62d00071104104fc43050370ef430703550800550f009029902e404040404050005309711043040343050370ef4307037f62d3
:4006c000d000510821b026084f7f50527f800462ddfe43de017f43d6317f41defe41d6fe7f41defe7f41d6fe7f62d0004f52fd530d52fc530e52fb530c52fa530b703f7182
:40070000c07f7e43e1107f41e1ef7f4333017f4133fe7f60317f60327f5d327f4f5d32084133fe71105d310862310070ef5d305d32085200603271105201603170ef433300
:40074000011838fe703f71c07f7e43e1207f41e1df7f4337017f4137fe7f60357f60367f5d367f4f5d36084137fe71105d350862350070ef5d345d36085200603671105288
:4007800001603570ef4337011838fe703f71c07f7e43e1017f41e1fe7f4323017f4123fe7f60217f60227f5d227f4f5d22084123fe71105d210862210070ef5d205d220870
:4007c0005200602271105201602170ef4323011838fe703f71c07f7e43e1027f41e1fd7f4327017f4127fe7f60257f60267f5d267f4f5d26084127fe71105d2508622500f0
:4008000070ef5d245d26085200602671105201602570ef4327011838fe703f71c07f2103570179c00564648ffa4f085d6021f32b00606018703f71c07f7f7f0850c890164c
:4008400078bffc1878bff57f900c78bffc7f08193a7c010101010871105de070ef21073905d006ffe978bffe187f9010800b62d000511b08903238ff8ff58fff1050000800
:40088000501b08500208087c06e938fc207101107c068e50037c045c50037c050a7c08392062d000551c647f104f38023dfc00a01c3dfc01a0273dfc02a0423dfc03a05dbd
:4008c0003dfc04a0783dfc05a09380ad107c079d7c070f7c07e47c075620809d1062d000511c7c07a462d000511c7c07167c07997c07e47c070b7c075620807d1062d0006f
:40090000511c7c07eb62d000511c7c075d7c079d7c07e07c070f7c075220805d1062d000511c7c07167c07567c070b7c079d62d000511c7c07eb7c07e020803d1062d00018
:40094000511c7c07a47c07997c07e47c070f62d000511c7c075d7c075220801d500208901b38ff62d0005401500308900f62d00008520108920038fd38fe207f104f101050
:4009800052fc7c081e50017c053520107c05722062d0003900aff5107c057862d0005a16531520511608511508900c38fe62d0005400520020207f104f380662d000500155
:4009c0001057a07c0d9e53155112531620511513fc51161bfbc03c62d0005118110162d000531562d0005117190062d000531665156b160615a00e160151161058157c0daa
:400a00009e5315511253162052fc121552fb1a16d00862d00050ff815a560100560000803a62d00052010101531552000900531665156b160615a00e160151161058157c49
:400a40000d9e5315511253162052fc121552fb1a16c003803077010f000062d0005118110262d000531562d0005117190062d00053165201121551163180531252003180fb
:400a80001a12cf9e62d000520153155200531665156b160615a00e160151161058157c0d9e5315511253162052010101531352000900531465136b140613a00e1401511406
:400ac0001058137c0d9e531351125314205115141351161c1452fc1215531552fb1a16085115085000085005087c0d6038fc5112531551115316511408511308511608510f
:400b000015087c0c0018531518531638fe5200085201085000085005087c0d6038fc51125313511153140613140e140051130215531551140a1653165000471680a0035080
:400b4000ff080862d0005116085115087c0cf51854051854041854031854025202085203085204085205087c0c4e1853151838fe511538fa207f104f3dfcffb00d3dfbff40
:400b8000b0085001089d2138ff50003bfcd007503c3bfcd00d50003bfbd047503c3bfbc04152fb3bfcd0115004089cfc38ff1050507c083b20802b52fc3bfbd01150030847
:400bc0009ce638ff1050507c083b20801552fc3bfbb00f5003089cd038ff1050647c083b205001089cc238ff1050327c083b20207f104f1052fb0852fc207c041620207faf
:400c0000104f50003dfb80c00d37fcff77fc37fbff0dfb50c03df980c00e37faff77fa37f9ff0ff9003180087c0ca4186ad00c37fcff37fbff77fc0ffb006ad00c37faff9d
:400c400037f9ff77fa0ff90020703f71c07f104f5dd00862d00052fa6a52f96a6e122ffa8056f900117fd00b500054fa54fb54fc802a3937dff31117c010a01966fc6cfb96
:400c80006cfa6cf978bff6800c73746ffa6ffb6ffc78bff86b12d0047c0cdd1860d020703f71c07f5dd00862d00050005311531255101066fc6cfb6b116b1251111bfa5160
:400cc000121bf9c009531252fa1c1177fc7a10bfe3511154fa511254f91860d07f37fcff77fc37fbff0ffb0037faff0ffa0037f9ff0ff9007f104f5dd00862d00052f9532e
:400d0000116ad0047c0cdd55129652f9b0182bfa2bfb2bfca04248fa80b03266fc6cfb6cfa7a128ff255100076126d6ffa6ffb6ffc6e1021ffbff26b10d012b00648fc017c
:400d4000a00b500077fc0dfb0dfa0c126cfa6b1151126d54f96ffa1860d020703f71c07f104f5dd00862d00052f960e952fc60e85deb531152fa60e95deb53125dea48fc40
:400d800080a00303fa6cfad00303fc041152fb60e85deb04111860d020703f71c07f0828531218750900287f001702000f00190004ff003030303030303030303030303087
:400dc00030303030303030303030303030303030303030303030303030303030303030303030303030303030303030303030303030303030303030303030303030303030f3
:400e000030303030303030303030303030303030303030303030303030303030303030303030303030303030303030303030303030303030303030303030303030303030b2
:400e40003030303030303030303030303030303030303030303030303030303030303030303030303030303030303030303030303030303030303030303030303030303072
:400e80003030303030303030303030303030303030303030303030303030303030303030303030303030303030303030303030303030303030303030303030303030303032
:020000040010ea
:020000040020da
:0200000003d922
:00000001ff
